:1000000016C03AC039C038C037C036C035C034C059
:1000100033C032C022C430C02FC02EC02DC000005B
:1000200001000800400000010004050D3005112406
:100030001FBECFE5D2E0DEBFCDBF10E0A0E6B0E04E
:10004000E4EAFBE002C005900D92A63DB107D9F7A6
:1000500011E0A6EDB0E001C01D92A43DB107E1F7AB
:1000600010E0CEE2D0E003C02297FE0183D5CC326F
:10007000D107D1F703D594C5C3CFC49A2FEF89E632
:1000800098E1215080409040E1F700C00000C49802
:100090002FEF89E698E1215080409040E1F700C0C1
:1000A00000000895C49A2FEF87EA91E6215080401E
:1000B0009040E1F700C00000F5CFFFCF8CE308953A
:1000C000A0E0B0E0E5E6F0E027C5EC017B018A01A5
:1000D000E881F9810280F381E02D0995D82E8823EB
:1000E000C9F0E114F104A9F00115110591F0FE0128
:1000F000E759FF4F90819750F8018081981708F4D5
:100100009083F801408150E0BE01665D7F4FC701DA
:100110003ED51D8E8D2DCDB7DEB7E7E019C5C49A4B
:100120000895AF92BF92CF92DF92EF920F93CF9349
:10013000DF93CDB7DEB72A970FB6F894DEBF0FBEB8
:10014000CDBF6C015B012A8749875ED482E890E0CD
:10015000F60191838083B68AA58A4985478B2A85D3
:10016000208F018FE38E88E0E0E6F0E0DE0111965B
:1001700001900D928A95E1F7D601A359BF4F88E00F
:10018000FE01319601900D928A95E1F72A960FB6FD
:10019000F894DEBF0FBECDBFDF91CF910F91EF90EE
:1001A000DF90CF90BF90AF900895A5E0B0E0EAED6A
:1001B000F0E0A7C41A013D832C836115710511F489
:1001C000F90140C06B01E12CF12C83E0CC0CDD1C6B
:1001D000EE1CFF1C8A95D1F700E210E0F1E0FB83F2
:1001E000812C92E1992E9AE7A92EB12C2A01612C3B
:1001F000712C42E050E0B801CE010196BFD42981B4
:100200003A8140E050E0C501B40159D4CA01B901B6
:10021000A701960154D4223031054105510528F03B
:10022000241535054605570540F08B818F5F8B837C
:100230000E5F1F4F8730E9F609C0EB81E63059F4B5
:10024000EC81FD811182108280E012C022303105E4
:1002500041055105A8F3C101A0E0B0E08217930762
:10026000A407B50768F3EC81FD81318320838B817E
:100270002596E2E162C4A2E0B0E0E0E4F1E051C41E
:10028000FC01658976899E012F5F3F4F4FEF5FEF3D
:100290008CDF882359F01ABC92E093BF93B7982B58
:1002A00093BF898189BD89B7806189BF2296E2E0C9
:1002B00054C4FC01228133812230310531F0C498CD
:1002C000C49822E030E0338322830895FC01228128
:1002D00033812430310531F0C498C49824E030E0F3
:1002E000338322830895CF93DF93EC018A819B812E
:1002F000039789F0FE01E659FF4F1082FE01E55990
:10030000FF4F1082FE01E459FF4F108208DF83E0A7
:1003100090E09B838A83DF91CF9108956F927F92C3
:100320009F92AF92BF92CF92DF92EF92FF920F9384
:100330001F93CF93DF9300D0CDB7DEB73C01B62E2D
:100340004D3308F011C17C0125E7E20EF11CDC0100
:10035000ED91FC910484F585E02D4A83798309951C
:100360004A8117E0140F612F8FEF9FEFDED2E12F4C
:10037000F0E0A4E0F595E795AA95E1F7E859FF4F7D
:100380002081F70120831F70E12FF0E0E859FF4F33
:100390002081F301EA58FF4F2083D3011A966C9114
:1003A000C4D2F3012285E22FF0E0B4E0F595E795A1
:1003B000BA95E1F7E859FF4F3081D301A958BF4FF3
:1003C0003C932F70E22FF0E0E859FF4F2081F301BA
:1003D000E858FF4F2083D3011B966C91A6D2F301FE
:1003E0002385E22FF0E014E0F595E7951A95E1F703
:1003F000E859FF4F3081D301A758BF4F3C932F706E
:10040000E22FF0E0E859FF4F2081F301E658FF4F5B
:100410002083D3011C966C9188D2F3012485E22FAE
:10042000F0E004E0F595E7950A95E1F7E859FF4F0C
:100430003081D301A558BF4F3C932F70E22FF0E0DD
:10044000E859FF4F2081F301E458FF4F2083D30187
:100450001D966C916AD2F3012585E22FF0E034E01D
:10046000F595E7953A95E1F7E859FF4F3081D301CB
:10047000A358BF4F3C932F70E22FF0E0E859FF4F95
:100480002081F301E258FF4F20839B2C6301F0E8A9
:10049000CF0ED11C0B2D7981172F4A81202F2919BE
:1004A000241710F55801D8016C914A833ED2F60109
:1004B0003197D8012D918D01A22FB0E074E0B59550
:1004C000A7957A95E1F7A859BF4F2C912083D501C4
:1004D000EC91EF70F0E0E859FF4F2081F6012083A6
:1004E000F2E0CF0ED11CD9CF50E04B5F5F4F440FED
:1004F000551F80959095E40EF51EDC0134E0B6950D
:10050000A7953A95E1F7AF70BB27A859BF4F2C913B
:10051000D7012C93FC01EF70FF27E859FF4F208192
:1005200011962C931197FC01EF2FFF27E295EF70A6
:10053000E859FF4F208112962C931297E92FFF273D
:10054000EF70FF27E859FF4F808113968C93F301DA
:10055000E550FF4F445F4083C301C5DE7092D30175
:100560006092D20181E001C080E00F900F90DF9196
:10057000CF911F910F91FF90EF90DF90CF90BF90A0
:10058000AF909F907F906F90089528B323FB222710
:1005900020F9FC01828D82270895662311F0C49A08
:1005A0000895C4980895662311F0B9DD0895C4989C
:1005B0000895862F86958695887098E0980F8917FC
:1005C00049F0E82FF0E0E859FF4F2081621719F059
:1005D0008F5FF5CF80E00895FF920F931F93CF9325
:1005E000DF93EC01F12C8FEF9FEF8E0107591F4F26
:1005F000F8012081F21638F4FE01EF0DF11D65A11E
:1006000094D1F394F5CF883B904F39F08F8598893A
:100610000196988B8F871D8E19C08EA18E838FA116
:100620008F8388A5888789A589878D81811107C0D7
:100630009E818C81981719F08E818F3F39F48989BA
:100640009A8901969A8B898B81E08D8FCDB7DEB721
:10065000E5E080C2CF93DF93EC018A819B81039711
:1006600051F0CE0133DE8C8D882319F0CE01B4DF3A
:100670001C8E8D8D01C080E0DF91CF9108951F9376
:10068000CF93DF93EC0181DF882319F09F8D9F5F6B
:100690009F8F9E8D891771F098A1903518F42BE0EB
:1006A00030E002C02DE130E098A1290F311D28A3D0
:1006B0008E8F03C088A18C5E88A388A1803A08F43D
:1006C0006AC08AA19BA1969587959BA38AA38F8DCB
:1006D000853028F08AA19BA198609BA38AA388A15A
:1006E000805A88A31F8E89A1882309F442C08CA157
:1006F0008F5F8CA38C3008F44EC06AA17BA16F730E
:10070000CE0157DF182F6AA17BA146E07695679549
:100710004A95E1F7CE014DDF912F9295907F982B6E
:10072000AE0147595F4FFA018081DE01A859BF4FE2
:100730008823A9F0FA01808121E0280F20839E01FF
:10074000280F311DF90195A3FA0190818C9198171A
:1007500070F019A281E08C8FCE01ABDD08C09C93B4
:100760008C91873090F08C91843478F4E3CF1CA284
:1007700012C08AA19BA188339B4069F481E089A3C0
:100780001CA2C759DF4F188206C019A28F8598890D
:100790000196988B8F87DF91CF911F910895A0E0EC
:1007A000B0E0E4EDF3E0B7C1EC018C0104591F4F58
:1007B000F801808191E0980F9083811135C06E011E
:1007C000FAE6CF0ED11CF6018081FE01E550FF4F05
:1007D0009081891740F0CE016CDD8B899C89019650
:1007E0009C8B8B8B21C0FE01E80FF11DE359FF4F5D
:1007F000608170E07E01FBE6EF0EF11CF701808165
:1008000091E0980F908302C0759567958A95E2F7FD
:100810006170CE01C2DEF7018081863028F010823F
:10082000F60180818F5F8083F8018081883008F035
:100830001082CDB7DEB7E8E08AC1FC0122813381A6
:100840002430310511F41BDF0895FC01228133812E
:100850002330310509F4A3DF08951F920F920FB6DC
:100860000F9211242F933F934F935F936F937F9336
:100870008F939F93AF93BF93EF93FF938091D20198
:100880009091D301DADFFF91EF91BF91AF919F91EA
:100890008F917F916F915F914F913F912F910F9029
:1008A0000FBE0F901F9018951F93CF93DF93EC010D
:1008B0006AD0182F882351F0D093D301C093D2016E
:1008C000BC9ABB98CE01F5DCCE01D5DC812FDF913F
:1008D000CF911F910895862728E030E0AC0156950E
:1008E000479580FF06C0CA0161E0862760EA962727
:1008F00001C0CA01215031092115310579F7089548
:10090000962728E030E0AC01440F551F97FF06C042
:10091000CA0161E2862760E1962701C0CA01215021
:1009200031092115310579F708956827462F429539
:10093000407F462750E0342F2227692F70E0262B76
:10094000372BCA01E4E095958795EA95E1F72827CA
:100950003927CA01F3E0880F991FFA95E1F782273A
:1009600093270895682788E09CE8262F30E0359586
:10097000279560FF03C0622F692701C0622F815055
:10098000A1F7862F089581E00895CF93DF93EC01BE
:10099000E881F9810280F381E02DCE010995882359
:1009A000B9F3DF91CF91089580E00895FC01228191
:1009B000338123303105D1F381E0089580E008953B
:1009C000FC0165830895FC0164830895FC0162873E
:1009D0000895FC0163870895FC016487089540959C
:1009E000FC0125854223462B45870895FC0186811D
:1009F0000895FC0187810895FC0180850895FC011C
:100A00008185089580E00895FC018EEA90E091834D
:100A10008083138212828FEF848382878387148678
:100A20001586108A1786128A118A148A138A0895E5
:100A3000FC0186850895FC01828193810895FC0163
:100A40007383628308950895FC01878590890895D2
:100A5000FC01818992890895FC0183899489089514
:100A6000EF920F93E12C0AE02CE04BE060ED77E091
:100A700086ED90E056DB0F91EF90089586ED90E0C3
:100A800013DF789445E068E770E086ED90E046DC9F
:100A9000811101C007DBE091D600F091D7000484FA
:100AA000F585E02D86ED90E009952FEF89E698E138
:100AB000215080409040E1F700C00000E3CFA1E268
:100AC0001A2EAA1BBB1BFD010DC0AA1FBB1FEE1FC8
:100AD000FF1FA217B307E407F50720F0A21BB30B13
:100AE000E40BF50B661F771F881F991F1A9469F78F
:100AF00060957095809590959B01AC01BD01CF01EB
:100B000008952F923F924F925F926F927F928F92B1
:100B10009F92AF92BF92CF92DF92EF92FF920F938C
:100B20001F93CF93DF93CDB7DEB7CA1BDB0B0FB696
:100B3000F894DEBF0FBECDBF09942A883988488853
:100B40005F846E847D848C849B84AA84B984C884E9
:100B5000DF80EE80FD800C811B81AA81B981CE0FE0
:100B6000D11D0FB6F894DEBF0FBECDBFED010895C5
:100B7000EE0FFF1F0590F491E02D0994FB01DC01BD
:100B800002C005900D9241505040D8F70895FB01E6
:100B9000DC0102C001900D9241505040D8F70895F9
:040BA000F894FFCFF7
:100BA4002A2A2A2A2A2A382C0D0E131516191A1C39
:100BB400232526292A2C323468656C6C6F000000CA
:100BC400000054042A0360008E015E00C504D604AC
:100BD400DE04D404E304E604E904EC04EF04E004D2
:100BE400F604F904FC04FF04020500000000C30439
:100BF4005D005D005D005D00C504D604DE04D40420
:100C0400E304E604E904EC04EF04E004F604F90464
:060C1400FC04FF040205D0
:00000001FF
